:100000000C9463000C948B000C948B000C948B006C
:100010000C948B000C948B000C948B000C94740447
:100020000C948B000C948B000C948B000C948B0024
:100030000C948B000C948B000C948B000C948B0014
:100040000C9428050C948B000C94F6040C94D004AA
:100050000C948B000C948B000C948B000C948B00F4
:100060000C948B000C948B000000000024002700EF
:100070002A0000000008000201000003040700003D
:1000800000000000000000000000230026002900FE
:10009000010204081020408001020408102001021F
:1000A0000408102000000000250028002B00040494
:1000B0000404040404040202020202020303030310
:1000C00003030200B70511241FBECFEFD8E0DEBF47
:1000D000CDBF11E0A0E0B1E0ECE9F3E102C0059092
:1000E0000D92A034B107D9F722E0A0E4B1E001C03D
:1000F0001D92AB31B207E1F710E0C3E6D0E004C0D7
:100100002197FE010E94C109C236D107C9F70E949A
:1001100001060C94CC090C940000FC01538D448D15
:10012000252F30E0842F90E0821B930B541710F0A2
:10013000CF96089501970895FC01918D828D9817AF
:1001400061F0828DDF01A80FB11D5D968C91928DBB
:100150009F5F9F73928F90E008958FEF9FEF0895B8
:10016000FC01918D828D981731F0828DE80FF11D81
:10017000858D90E008958FEF9FEF0895FC01918D9C
:10018000228D892F90E0805C9F4F821B91098F7395
:1001900099270895FC01848DDF01A80FB11DA35A92
:1001A000BF4F2C91848D90E001968F739927848F97
:1001B000A689B7892C93A089B1898C9180648C938E
:1001C000938D848D981306C00288F389E02D808179
:1001D0008F7D80830895EF92FF920F931F93CF93AB
:1001E000DF93EC0181E0888F9B8D8C8D981305C087
:1001F000E889F989808185FD24C0F62E0B8D10E0F9
:100200000F5F1F4F0F731127E02E8C8DE8120CC06B
:100210000FB607FCFACFE889F989808185FFF5CF11
:10022000CE010E94CA00F1CF8B8DFE01E80FF11DB7
:10023000E35AFF4FF0820B8FEA89FB89808180624D
:1002400007C0EE89FF896083E889F989808180642D
:10025000808381E090E0DF91CF911F910F91FF901B
:10026000EF900895CF93DF93EC01888D8823C9F038
:10027000EA89FB89808185FD05C0A889B9898C91AF
:1002800086FD0FC00FB607FCF5CF808185FFF2CF4A
:10029000A889B9898C9185FFEDCFCE010E94CA0053
:1002A000E7CFDF91CF91089586E691E00E94BE00EE
:1002B00021E0892B09F420E0822F089580E090E06E
:1002C000892B29F00E94540181110C94000008959B
:1002D000CF92DF92EF92FF920F931F93CF93DF9312
:1002E0006C017A018B01C0E0D0E0CE15DF0589F00A
:1002F000D8016D918D01D601ED91FC910190F081B5
:10030000E02DC6010995892B11F47E0102C02196CA
:10031000ECCFC701DF91CF911F910F91FF90EF902C
:10032000DF90CF90089590E0FC01EE58FF4F34919C
:10033000FC01E057FF4F2491FC01E255FF4FE4918F
:10034000EE2309F43BC0332339F1333091F038F414
:100350003130A9F0323001F584B58F7D12C03730CD
:1003600091F03830A1F03430B9F4809180008F7D65
:1003700003C0809180008F77809380000DC084B58A
:100380008F7784BD09C08091B0008F7703C08091C2
:10039000B0008F7D8093B000F0E0EE0FFF1FEC55B2
:1003A000FF4FA591B4918FB7F894EC91611103C000
:1003B00020952E2301C02E2B2C938FBF0895909152
:1003C0000001981324C0E2ECF0E0E4919FEF9093D9
:1003D0000001E130B9F098F0E230C9F4909170007A
:1003E0009D7F9093700091E09093B0009091B10048
:1003F000987F94609093B1001092B30008C010925F
:100400006E0005C090916F009D7F90936F0060E03B
:100410000C949301CF93DF9390E0FC01E057FF4FE2
:100420002491FC01E255FF4F8491882361F190E013
:10043000880F991FFC01E859FF4FC591D491FC0129
:10044000EC55FF4FA591B491611109C09FB7F89485
:100450008881209582238883EC912E230BC0623003
:1004600061F49FB7F8943881822F80958323888325
:10047000EC912E2B2C939FBF06C08FB7F894E88188
:100480002E2B28838FBFDF91CF9108953FB7F8942B
:100490008091450190914601A0914701B09148019A
:1004A00026B5A89B05C02F3F19F00196A11DB11DCF
:1004B0003FBFBA2FA92F982F8827820F911DA11D0A
:1004C000B11DBC01CD0142E0660F771F881F991F47
:1004D0004A95D1F708958F929F92AF92BF92CF9293
:1004E000DF92EF92FF926B017C010E9446024B016A
:1004F0005C01C114D104E104F104F1F00E94460250
:10050000DC01CB0188199909AA09BB09883E9340EF
:10051000A105B10570F321E0C21AD108E108F10884
:1005200088EE880E83E0981EA11CB11CC114D10472
:10053000E104F10419F7DDCFFF90EF90DF90CF9049
:10054000BF90AF909F908F900895CF93DF93EC0171
:1005500060E08E810E94930161E08E810E94930190
:1005600060E08E810E9493018BE891E00197F1F7A2
:10057000DF91CF910895CF92DF92EF92FF920F9388
:100580001F93CF93DF937C016C0187E0C80ED11CD1
:10059000C0E0D0E0062F10E0B8010C2E02C0759527
:1005A00067950A94E2F76170F60181916F010E94EC
:1005B00093012196C430D10579F7C701DF91CF911E
:1005C0001F910F91FF90EF90DF90CF900C94A502B8
:1005D000CF92DF92EF92FF920F931F93CF93DF930F
:1005E000EC01F62E642F8C810E9493018D818F3F48
:1005F00019F060E00E9493018F850F2D10E084FFB9
:1006000025C06E0187E0C80ED11CE12CF12CB80189
:100610000E2C02C0759567950A94E2F76170F60199
:1006200081916F010E949301FFEFEF1AFF0A88E0AA
:10063000E816F10461F7CE01DF91CF911F910F9180
:10064000FF90EF90DF90CF900C94A502B80184E06A
:10065000759567958A95E1F7CE010E94BB026F2DD3
:10066000CE01DF91CF911F910F91FF90EF90DF901E
:10067000CF900C94BB0241E00E94E80281E090E040
:10068000089540E00C94E802EF92FF920F931F93BD
:10069000CF93DF93EC01623018F08F8588608F87ED
:1006A0006B8B1C8A80E48D8B80E18E8B80E58F8B39
:1006B00061E08C810E940A028D818F3F19F061E018
:1006C0000E940A0261E08E810E940A027E0187E098
:1006D000E80EF11C00E010E08F8584FD03C084E08B
:1006E00090E002C088E090E0081719074CF461E040
:1006F000F70181917F010E940A020F5F1F4FECCF2B
:100700008BE39DE00197F1F760E08C810E949301FB
:1007100060E08E810E9493018D818F3F19F060E02F
:100720000E9493016F8564FD1DC063E0CE010E94AD
:10073000BB020BE416E4C8010197F1F763E0CE01B8
:100740000E94BB02C8010197F1F763E0CE010E944D
:10075000BB0283E592E00197F1F762E0CE010E94CF
:10076000BB0216C06062CE010E9441038BE496E496
:100770000197F1F76F856062CE010E94410383E526
:1007800092E00197F1F76F856062CE010E9441030C
:100790006F856062CE010E94410384E0888B6CE02B
:1007A000CE010E94410361E0CE010E9441038BE330
:1007B0009FE10197F1F782E0898B66E0CE01DF913E
:1007C000CF911F910F91FF90EF900C9441030895EA
:1007D00080E090E008950E94C7096115710579F0E5
:1007E000FB0101900020E9F73197AF01461B570B41
:1007F000DC01ED91FC910280F381E02D099480E011
:1008000090E008954F925F926F927F92EF92FF92E5
:100810000F931F93CF93DF93CDB7DEB7A1970FB69A
:10082000F894DEBF0FBECDBF7C01FA01CB0119A247
:10083000223008F42AE08E010F5D1F4F422E512C0A
:10084000612C712CBF01A30192010E949F09F90143
:10085000CA01015011096A3014F4605D01C0695C7D
:10086000D8016C93232B242B252B61F7B801C701EA
:100870000E94ED03A1960FB6F894DEBF0FBECDBF68
:10088000DF91CF911F910F91FF90EF907F906F902C
:100890005F904F900895CF92DF92EF92FF920F9367
:1008A0001F93CF93DF93EC016A017B01E881F9810B
:1008B0000190F081E02D6DE209958C0144275527C8
:1008C000BA014C195D096E097F092AE0CE010E9428
:1008D0000204800F911FDF91CF911F910F91FF9024
:1008E000EF90DF90CF9008951F920F920FB60F9266
:1008F00011242F933F934F935F936F937F938F9325
:100900009F93AF93BF93EF93FF9380915201909188
:100910005301A0915401B0915501892B8A2B8B2B47
:1009200051F180914901E0914A01F0914B01908190
:10093000892780838091520190915301A0915401A5
:10094000B0915501181619061A061B06C4F48091B9
:10095000520190915301A0915401B091550101971A
:10096000A109B1098093520190935301A0935401BE
:10097000B093550104C0809100010E94DF01FF91F6
:10098000EF91BF91AF919F918F917F916F915F9107
:100990004F913F912F910F900FBE0F901F90189580
:1009A0001F920F920FB60F9211242F933F934F93E4
:1009B0005F936F937F938F939F93AF93BF93EF93C7
:1009C000FF9386E691E00E94CA00FF91EF91BF91EC
:1009D000AF919F918F917F916F915F914F913F91D7
:1009E0002F910F900FBE0F901F9018951F920F928E
:1009F0000FB60F9211242F938F939F93EF93FF9332
:100A0000E0917601F09177018081E0917C01F09195
:100A10007D0182FD12C0908180917F018F5F8F7375
:100A200020918001821751F0E0917F01F0E0EA59B6
:100A3000FE4F958F80937F0101C08081FF91EF91E0
:100A40009F918F912F910F900FBE0F901F9018952F
:100A50001F920F920FB60F9211242F933F938F93F3
:100A60009F93AF93BF938091410190914201A091D8
:100A70004301B09144013091400123E0230F2D3711
:100A800020F40196A11DB11D05C026E8230F029692
:100A9000A11DB11D2093400180934101909342011B
:100AA000A0934301B0934401809145019091460188
:100AB000A0914701B09148010196A11DB11D8093FD
:100AC000450190934601A0934701B0934801BF911F
:100AD000AF919F918F913F912F910F900FBE0F90EB
:100AE0001F901895CF92DF92EF92FF920F931F9372
:100AF000E82FF92F05C0015011092109310961F1D1
:100B0000908196239417B9F305C00150110921096A
:100B1000310911F1908196239413F7CFC12CD12C78
:100B2000E12CF12C0AC08FEFC81AD80AE80AF80A9B
:100B30000C151D052E053F0579F08081862384174D
:100B400091F36C2D7D2D8E2D9F2D1F910F91FF9078
:100B5000EF90DF90CF90089560E070E080E090E04B
:100B60001F910F91FF90EF90DF90CF900895E6E6F0
:100B7000F1E01382128288EE93E0A0E0B0E084837B
:100B80009583A683B78385E091E09183808385EC8C
:100B900090E09587848784EC90E09787868780EC47
:100BA00090E0918B808B81EC90E0938B828B82EC38
:100BB00090E0958B848B86EC90E0978B868B118EE2
:100BC000128E138E148EE3E0F2E01382128287E11C
:100BD00091E09183808314828FEF858381E0868307
:100BE00082E0878383E0808784E0818785E0828755
:100BF0001386148615861686178661E0CF010C943D
:100C00004403789484B5826084BD84B5816084BDDA
:100C100085B5826085BD85B5816085BD80916E009A
:100C2000816080936E0010928100809181008260CB
:100C30008093810080918100816080938100809108
:100C400080008160809380008091B10084608093F7
:100C5000B1008091B00081608093B00080917A00F3
:100C6000846080937A0080917A00826080937A0019
:100C700080917A00816080937A0080917A00806808
:100C800080937A001092C10061E086E00E940A021F
:100C900060E087E00E940A0261E088E00E940A02A8
:100CA00061E089E00E940A0261E08AE00E940A0293
:100CB00061E08CE00E940A0262E083E092E00E9420
:100CC000440343E0242E312C53E2852E912C4424FE
:100CD0004A94542C32017FE9A72E7FE0B72EE2EC34
:100CE000CE2EE0E0DE2EC9EBD0E0FBE9EF2EF0E007
:100CF000FF2E60E086E00E949301C1010197F1F7A9
:100D000061E086E00E949301C4010197F1F760E081
:100D100086E00E949301E7E9F0E06491E5EBF0E002
:100D20008491E82FF0E0EE0FFF1FEA57FF4F859107
:100D3000949100E412E42FE030E0462F0E94720507
:100D4000611571058105910549F0DC01CB01019622
:100D5000A11DB11DBC01CD019F7003C060E070E01A
:100D6000CB0160936201709363018093640190935F
:100D700065010E94A60826E933E44BE05DE30E948A
:100D80000A0920E030E040E05FE30E940A090E9487
:100D90006E087093610160936001072E000C880B50
:100DA000990B0E94A6082AE939E949E95FE30E9404
:100DB0000A090E946E0870935F0160935E01E1E092
:100DC000809116028111E0E0E195F0E0ED5FFD4FCA
:100DD0006489606883E092E00E9441036FE171E002
:100DE00083E092E00E94ED0340915E0150915F012B
:100DF000052E000C660B770B77FF05C083E092E0B1
:100E00000E944B0405C02AE083E092E00E940204A5
:100E10006CE271E083E092E00E94ED03E091160243
:100E2000E23010F4E15001C0E1E0F0E0ED5FFD4F91
:100E30006489606883E092E00E944103E0911602B9
:100E4000E23010F4E15001C0E1E0F0E0ED5FFD4F71
:100E50006489606883E092E00E9441036EE271E081
:100E600083E092E00E94ED0364E670E080E090E0B1
:100E70000E946B024091600150916101052E000CAF
:100E8000660B770B77FF05C086E691E00E944B0466
:100E900005C02AE086E691E00E9402046CE371E05E
:100EA00086E691E00E94ED0380915E0190915F01E2
:100EB0008A3091050CF0D0C061E08CE00E94930173
:100EC00061E088E00E94930160E089E00E94930164
:100ED00060E08AE00E949301809100018B3019F458
:100EE000F601149171C08F3F09F0A6C08BE080938A
:100EF0000001F60114911F3F09F49EC0113001F169
:100F0000123009F43FC011115FC014BC15BC84B588
:100F1000826084BD85B5816085BDFE018491E82F26
:100F2000F0E0EE0FFF1FEC55FF4F859194919093E9
:100F3000510180935001F701849180934F0146C085
:100F400010928000109281008091810088608093CF
:100F5000810080918100816080938100FE018491F5
:100F6000E82FF0E0EE0FFF1FEC55FF4F85919491B5
:100F700090934E0180934D01F701849180934C0131
:100F800011E024C01092B0001092B1008091B00026
:100F900082608093B0008091B10081608093B10045
:100FA000FE018491E82FF0E0EE0FFF1FEC55FF4F9C
:100FB0008591949190934B0180934A01F70184911C
:100FC0008093490112E002C017FD36C061E08BE05A
:100FD0000E940A02112309F46DC0123009F462C0A4
:100FE0001130C1F480918100887F816080938100FD
:100FF000B0928900A0928800409256015092570109
:10100000609258017092590180916F0082608093C4
:101010006F0012C0123081F48FE98093B3004092C8
:101020005201509253016092540170925501809187
:10103000700082608093700064EF71E080E090E067
:101040000E946B028BE00E94DF016AEF70E080E09B
:1010500090E00E946B0223C09C0123533109273288
:10106000310550F460E088E00E94930161E089E07E
:101070000E94930160E010C08B35910584F060E020
:101080008CE00E94930160E088E00E94930160E0A0
:1010900089E00E94930161E08AE00E9493010E942E
:1010A0005E0127CE8091B100887F83608093B1007C
:1010B0008CE7B3CF85B5887F836085BDFDE3F7BD41
:1010C00040925A0150925B0160925C0170925D0106
:1010D00080916E00826080936E00AECF0E94750892
:1010E0006894B1110C94040908950E94E90888F0ED
:1010F0009F5798F0B92F9927B751B0F0E1F0660FDC
:10110000771F881F991F1AF0BA95C9F714C0B1301C
:1011100091F00E940309B1E008950C940309672F30
:10112000782F8827B85F39F0B93FCCF3869577954B
:101130006795B395D9F73EF4909580957095619534
:101140007F4F8F4F9F4F0895E89409C097FB3EF45F
:1011500090958095709561957F4F8F4F9F4F992304
:10116000A9F0F92F96E9BB279395F6958795779582
:101170006795B795F111F8CFFAF4BB0F11F460FF42
:101180001BC06F5F7F4F8F4F9F4F16C0882311F09A
:1011900096E911C0772321F09EE8872F762F05C0AE
:1011A000662371F096E8862F70E060E02AF09A9549
:1011B000660F771F881FDAF7880F9695879597F93E
:1011C000089557FD9058440F551F59F05F3F71F037
:1011D0004795880F97FB991F61F09F3F79F087959E
:1011E0000895121613061406551FF2CF4695F1DF27
:1011F00008C0161617061806991FF1CF86957105B7
:10120000610508940895E894BB2766277727CB01EA
:1012100097F908950E941D090C948E090E94800977
:1012200038F00E94870920F0952311F00C9477097B
:101230000C947D0911240C9404090E94E10870F3B8
:10124000959FC1F3950F50E0551F629FF001729F6B
:10125000BB27F00DB11D639FAA27F00DB11DAA1F7A
:10126000649F6627B00DA11D661F829F2227B00DC7
:10127000A11D621F739FB00DA11D621F839FA00D52
:10128000611D221F749F3327A00D611D231F849FA2
:10129000600D211D822F762F6A2F11249F575040F9
:1012A0009AF0F1F088234AF0EE0FFF1FBB1F661F74
:1012B000771F881F91505040A9F79E3F510580F03D
:1012C0000C9477090C9404095F3FE4F3983ED4F33F
:1012D000869577956795B795F795E7959F5FC1F7E1
:1012E000FE2B880F911D9695879597F9089597F98C
:1012F0009F6780E870E060E008959FEF80EC0895BC
:1013000000240A94161617061806090608950024E4
:101310000A9412161306140605060895092E03945E
:10132000000C11F4882352F0BB0F40F4BF2B11F4D2
:1013300060FF04C06F5F7F4F8F4F9F4F0895A1E202
:101340001A2EAA1BBB1BFD010DC0AA1FBB1FEE1F3F
:10135000FF1FA217B307E407F50720F0A21BB30B8A
:10136000E40BF50B661F771F881F991F1A9469F706
:1013700060957095809590959B01AC01BD01CF0162
:101380000895EE0FFF1F0590F491E02D099481E080
:0C13900090E0F8940C94CC09F894FFCF86
:10139C00FF00000000EB0068018D003201BE009CD4
:1013AC0000B000000000003B036801E803E70357AE
:1013BC0061746572204C6576656C3A002500497243
:1013CC0066616E2C2048616D6D6164000D0A000031
:00000001FF
